:100000000C94B90F0C94D8120C9409130C943A1355
:100010000C946B130C949C130C94CD130C94FE1342
:100020000C942F140C94F40F0C94F40F0C94F40F04
:100030000C94F40F0C9414150C94F40F0C94F40F0E
:100040000C94F40F0C943E660C94F40F0C94F40F83
:100050000C94F40F0C94F40F0C94667A0C94F60F35
:100060000C94F40F0C94CFC80C94F40F0C94F40F70
:100070000C94F40F0C94F40F0C94F40F0C94F40FF4
:100080000C94F40F0C94F40F0C94F40F0C94F40FE4
:100090000C94F40F0C94F40F0C94F40F0C94F40FD4
:1000A0000C94F40F0C94F40F0C94F40F0C94F40FC4
:1000B0000C94F40F0C94F40F0C94F40F0C94F40FB4
:1000C0000C94F40F0C94F40F0C949D2F0C94F40FDB
:1000D0000C94F40F0C94F40F0C94F40F0C94F40F94
:1000E0000C94F40F331138113D1147115111C811FF
:1000F0005B1163116B1175117F1189119611A0119C
:10010000C811AA11B411BE11F511F911E311E911C9
:10011000EF113E12FD11031209120F1215121B12DC
:10012000211227123E122D1233123912F039013AE0
:10013000123A233A343A453A4E3AF07AFF7A1B7B28
:100140002A7B467B557B717B757B797B7D7B817BB5
:10015000857B8D7B084AD73B3BCE016E84BCBFFDBF
:10016000C12F3D6C74319ABD56833DDA3D00C77F87
:1001700011BED9E4BB4C3E916BAAAABE0000008020
:100180003F05A84CCDB2D44EB93836A9020C50B9AF
:10019000918688083CA6AAAA2ABE000000803F00DB
:1001A0000C9479140C9496110C945E3A0C94E323FD
:1001B0000C9481380C944E3A0C9447110C94F039FD
:1001C0000C9405190C94B0330C946B1A0C94A01178
:1001D0000C9400190C94259A0C944AC80C941C1A7F
:1001E0000C942B650C946F190C9437190C94013AEC
:1001F0000C9479190C944D190C94467B0C94233A69
:100200000C94B4110C94D7390C94F07A0C94C81156
:100210000C9439120C94491A0C9479340C94291AC0
:100220000C94FF7A0C942A7B0C9421120C94741970
:100230000C94C32D0C9415120C9475110C94A59369
:100240000C9477170C94ED3A0C940F120C943D29F2
:100250000C947D7B0C94DB190C9474150C94F9119F
:100260000C949E930C943E120C9451110C94053CEA
:100270000C94797B0C94CAC80C94331D0C94EB1F1E
:100280000C94553B0C941C2C0C941B7B0C94AD3B98
:100290000C94FD110C94AD480C94A3190C941829DE
:1002A0000C948D7B0C94317C0C94F6220C943C19AC
:1002B0000C94F7190C9463110C945B110C94BF19F6
:1002C0000C94F5110C94343A0C94BE110C942B9AA6
:1002D0000C940F990C9433120C94126F0C942B996C
:1002E0000C942D120C94531B0C9433110C94E311A9
:1002F0000C94757B0C94AA110C9492360C947C315E
:100300000C94ED280C94D4210C94419A0C942599CA
:100310000C941E320C9427120C9427310C94361A2C
:100320000C9469290C94717B0C945E190C94031243
:100330000C9466C80C94E9110C94131A0C940912CD
:100340000C946B110C94E7280C94E7320C943D113B
:100350000C94857B0C9438110C9454290C943137EF
:100360000C94817B0C94AB930C94EF110C944F1A6A
:100370000C94123A0C9489110C94453A0C948F1EEB
:100380000C947F110C9432190C941B120C94557B15
:1003900000000A0B02090C0D0E08070304010000FF
:1003A000000000000000000000000000000000004D
:1003B000000000000000000000000000121110000A
:1003C000000000000000000000000000000000002D
:1003D000000000000000000000000000000000001D
:1003E000000000000000010210202008081020403A
:1003F00010204080020102010804020101020408E9
:100400001020408080402010080402018004020176
:1004100080402010080402010804020101020408BF
:1004200010204080010204081020408010080408B9
:100430008010204004408010204004800505050500
:10044000070508080808020202020A0A080804044C
:10045000040401010101010101010303030303037A
:100460000303040707070C0C0C0C0C0C0C0C020209
:10047000020206060606060606060B0B0B0B0B0B06
:100480000B0B07070A0A0A0A0A0A050505040404F1
:100490000808000020002300260029002C002F005F
:1004A00032000001000003010601090100002200E2
:1004B000250028002B002E0031003400020100002E
:1004C000050108010B0100002100240027002A007B
:1004D0002D003000330001010000040107010A0172
:1004E00002454D455247454E43592053544F5021E4
:1004F0000000322E302E3000486570686573746FCE
:1005000073005370656564004265640054656D70E6
:1005100065726174757265005072696E74696E6798
:100520002E2E2E002020202020207072696E7469EB
:100530006E67202020202020002020627574746FB8
:100540006E20746F20726573756D6520200065786C
:100550007472756465732C2070726573732074688F
:10056000652000205768656E207468652066696C98
:10057000616D656E74202000202020202074686545
:1005800020627574746F6E20202020200020666920
:100590006C616D656E7420616E642070726573733A
:1005A0002000202020496E736572742074686520D5
:1005B0006E6577202020002073746F707065642052
:1005C000657874727564696E67202000717569635F
:1005D0006B6C79207768656E206974206861732080
:1005E000002050756C6C207468652066696C616DC4
:1005F000656E74202000616E64206578747261639A
:10060000742066696C616D656E740020737461722C
:1006100074207468652070726F63657373202000A6
:1006200050726573732074686520627574746F6EA0
:1006300020746F2000202020506C617465206C6550
:1006400076656C6564212020200020202020204930
:1006500073206974206F6B3F202020202020002011
:1006600026205072657373207468652062757474F7
:100670006F6E200041646A75737420666F757274C2
:100680006820706F696E7420002026205072657398
:10069000732074686520627574746F6E2000204149
:1006A000646A75737420746869726420706F696E0F
:1006B00074200020262050726573732074686520B2
:1006C000627574746F6E200041646A757374207370
:1006D00065636F6E6420706F696E74200020262041
:1006E00050726573732074686520627574746F6EE0
:1006F00020002041646A75737420666972737420E7
:10070000706F696E74200020202050726573732012
:10071000746F20737461727420202000204C657601
:10072000656C696E6720706C6174652E2E2E2020BA
:10073000004D373030004D37303200012000486521
:100740006174696E672E2E2E0041626F7274004DC7
:1007500037303100496E73657274202620507265FF
:100760007373004261636B00012000486561746926
:100770006E672E2E2E0041626F727400556E6C6F84
:100780006164004C6F6164004261636B0058005902
:10079000005A004578747275646572004578747209
:1007A00075646572004D6F7665205A004D6F7665F1
:1007B0002059004D6F76652058004261636B004DF3
:1007C0006F766520302E316D6D004D6F766520316E
:1007D0006D6D004D6F76652031306D6D0042616347
:1007E0006B004A6F67004D38340044697361626C76
:1007F000652073746570706572730047323800410C
:1008000075746F20686F6D65004261636B002050E6
:100810007265737320746F2061626F7274000120BF
:100820000054656D703A00436F6F6C696E672E2ED1
:100830002E005072656865617400436F6F6C646F61
:10084000776E004C6576656C20706C617465004D48
:100850006F766520617869730046696C616D656EBD
:1008600074004261636B004D383420582059205A7F
:10087000204500486570686573746F732072656108
:1008800064790053746F70207072696E74004261F5
:10089000636B004D3234004731205A31300047320B
:1008A00038004D3233202573004261642066696C44
:1008B000656E616D65210064656661756C740050DC
:1008C000617573696E672E2E2E0050617573696EA7
:1008D000672E2E2E00465720696E666F00436F6E9E
:1008E00074726F6C005370656564004265640054F7
:1008F000656D7065726174757265004368616E67DD
:10090000652066696C616D656E74004E6F2053449E
:100910002063617264005072696E742066726F6D3C
:100920002053440053746F70207072696E740050CD
:1009300061757365207072696E74004261636B004B
:10094000436172642072656D6F7665640043617205
:100950006420696E736572746564002D2D3A2D2DC7
:10096000002D2D2D005344002059000120000120AE
:10097000007C3C3E5E2B3D3F2F5B5D3B2C2A225C86
:100980000020746F6F206C6F6E67206578747275CD
:1009900073696F6E2070726576656E746564002091
:1009A000636F6C6420657874727573696F6E207004
:1009B000726576656E74656400456E6473746F70FD
:1009C00073206869743A205A00205A3A00456E64D0
:1009D00073746F7073206869743A20590020593A13
:1009E00000456E6473746F7073206869743A2058A0
:1009F0000020583A00656E6473746F7073206869E4
:100A0000743A2000FFFFFFFFFFFFFFFFFFFFFFFF24
:100A1000FFFFFFFFFFFFFFFFFFFFFFFFFFFFFFFFE6
:100A2000FFFFFFFFFFFFFFFFFFFFFFFFFFFFFFFFD6
:100A3000FFFFFFFFFFFFFFFFFFFFFFFFFFFFFFFFC6
:100A4000FFFFFFFF24F4BEECC7E536DF03D926D352
:100A500097CD52C850C38CBE03BAAFB58EB19CAD12
:100A6000D6A939A6C2A2709F409C2F993D96679344
:100A7000AD900B8E828B0F89B2866A84358212808C
:100A8000027E027C127A31785F769A74E372397151
:100A90009B6F096E816C056B93692A68CB667665DE
:100AA0002964E462A8617360465F205E015DE95BD2
:100AB000D75ACC59C758C757CE56DA55EB540154BC
:100AC0001C533C5261518A50B84FEA4E204E594D4A
:100AD000974CD94B1E4B674AB34903495648AC471C
:100AE00005476246C14523458744EF435943C64203
:100AF0003542A6411A4190400940843F013F803E63
:100B0000013E843D093D8F3C183CA33B2F3BBD3A41
:100B10004D3ADE39713906399C383438CD3768376B
:100B20000437A2364036E13582352535C9346E3476
:100B30001534BD3365330F33BB3267321432C231E3
:100B400072312231D43086303930ED2FA32F592F16
:100B5000102FC82E802E3A2EF42DAF2D6B2D282D60
:100B6000E62CA42C632C232CE32BA52B672B292B01
:100B7000ED2AB02A752A3A2A002AC7298E29562931
:100B80001E29E728B0287A2845281028DC27A8271E
:100B9000752742271027DE26AC267C264B261C26EE
:100BA000EC25BD258F25612533250625D924AD24C7
:100BB000812456242B240024D623AC2382235923BA
:100BC00031230823E022B82291226A2243221D22E7
:100BD000F721D221AC21872163213E211A21F62061
:100BE000D320B0208D206A20482026200420E31F37
:100BF000C21FA11F801F601F401F201F001FE11E7A
:100C0000C21EA31E841E661E471E2A1E0C1EEE1D3B
:100C1000D11DB41D971D7B1D5E1D421D261D0A1D85
:100C2000EF1CD41CB81C9E1C831C681C4E1C341C5E
:100C30001A1C001CE61BCD1BB41B9B1B821B691BD3
:100C4000511B381B201B081BF01AD81AC11AA91AED
:100C5000921A7B1A641A4E1A371A201A0A1AF419B1
:100C6000DE19C819B2199D19871972195D19481929
:100C700033191E190A19F518E118CD18B918A51855
:100C800091187D186A18561843182F181C1809183F
:100C9000F617E417D117BF17AC179A1788177617EE
:100CA0006417521740172E171D170B17FA16E9165F
:100CB000D716C616B516A5169416831673166216A1
:100CC000521642163116211611160116F115E215AB
:100CD000D215C315B315A41594158515761567158A
:100CE000581549153A152C151D150E150015F1143A
:100CF000E314D514C714B914AB149D148F148114C4
:100D00007314651458144A143D142F142214151426
:100D10000814FB13EE13E113D413C713BA13AD1366
:100D2000A113941388137B136F13621356134A1382
:100D30003E133213251319130E130213F612EA127F
:100D4000DE12D312C712BC12B012A51299128E1263
:100D5000831278126C12611256124B124012361224
:100D60002B12201215120A120012F511EB11E011CC
:100D7000D611CB11C111B711AC11A21198118E115E
:100D800084117A11701166115C11521148113F11D2
:100D900035112B11211118110E110511FB10F21034
:100DA000E910DF10D610CD10C310BA10B110A81082
:100DB0009F1096108D1084107B10721069106010B7
:100DC00058104F1046103E1035102C1024101B10D8
:100DD00013100A100210F90FF10FE90FE10FD80FED
:100DE000D00FC80FC00FB80FB00FA80FA00F980FEB
:100DF000900F880F800F780F700F680F610F590FD9
:100E0000510F490F420F3A0F330F2B0F230F1C0FB7
:100E1000150F0D0F060FFE0EF70EF00EE80EE10E89
:100E2000DA0ED30ECB0EC40EBD0EB60EAF0EA80E4C
:100E3000A10E9A0E930E8C0E850E7E0E770E700EFE
:100E40006A0E630E5C0E550E4F0E480E410E3A0EA2
:100E5000340E2D0E270E200E1A0E130E0D0E060E3A
:100E6000000EF90DF30DED0DE60DE00DDA0DD30DCD
:100E7000CD0DC70DC10DBA0DB40DAE0DA80DA20D4F
:100E80009C0D960D900D8A0D840D7E0D780D720DC2
:100E90006C0D660D600D5A0D540D4F0D490D430D2F
:100EA0003D0D380D320D2C0D270D210D1B0D160D8E
:100EB000100D0A0D050DFF0CFA0CF40CEF0CE90CEB
:100EC000E40CDE0CD90CD40CCE0CC90CC30CBE0C3B
:100ED000B90CB40CAE0CA90CA40C9F0C990C940C7E
:100EE0008F0C8A0C850C800C7A0C750C700C6B0CBA
:100EF000660C610C5C0C570C520C4D0C480C430CEE
:100F00003E0C390C350C300C2B0C260C210C1C0C17
:100F1000170C130C0E0C090C040C000CFB0BF60B3D
:100F2000F20BED0BE80BE40BDF0BDA0BD60BD10B5E
:100F3000CD0BC80BC40BBF0BBB0BB60BB20BAD0B71
:100F4000A90BA40BA00B9B0B970B920B8E0B8A0B80
:100F5000850B810B7D0B780B740B700B6B0B670B88
:100F6000630B5F0B5A0B560B520B4E0B4A0B460B87
:100F7000410B3D0B390B350B310B2D0B290B250B81
:100F8000210B1C0B180B140B100B0C0B080B040B78
:100F9000000BFC0AF80AF50AF10AED0AE90AE50A6B
:100FA000E10ADD0AD90AD50AD20ACE0ACA0AC60A55
:100FB000C20ABF0ABB0AB70AB30AAF0AAC0AA80A38
:100FC000A40AA10A9D0A990A960A920A8E0A8B0A15
:100FD000870A830A800A7C0A780A750A710A6E0AEF
:100FE0006A0A670A630A600A5C0A590A550A520AC1
:100FF0004E0A4B0A470A440A400A3D0A390A360A91
:10100000320A2F0A2C0A280A250A220A1E0A1B0A5B
:10101000170A140A110A0E0A0A0A070A040A000A21
:10102000FD09FA09F709F309F009ED09EA09E609EA
:10103000E309E009DD09DA09D609D309D009CD09A8
:10104000CA09C709C409C009BD09BA09B709B40961
:10105000B109AE09AB09A809A509A2099F099C0914
:101060009909950992098F098C098A0987098409C8
:1010700081097E097B097809750972096F096C0974
:1010800069096609630960095E095B095809550920
:1010900052094F094C094A094709440941093E09C7
:1010A0003C0939093609330930092E092B09280969
:1010B0002509230920091D091B0918091509120909
:1010C00010090D090A090809050902090009FD08A6
:1010D000FA08F808F508F208F008ED08EB08E80847
:1010E000E508E308E008DE08DB08D908D608D308DD
:1010F000D108CE08CC08C908C708C408C208BF0870
:10110000BD08BA08B808B508B308B008AE08AB08FF
:10111000A908A608A408A1089F089D089A0898088D
:101120009508930890088E088C0889088708850818
:10113000820880087D087B087908760874087208A0
:101140006F086D086B0868086608640861085F0826
:101150005D085B0858085608540851084F084D08A8
:101160004B0848084608440842083F083D083B0829
:10117000390837083408320830082E082C082908A6
:1011800027082508230821081F081C081A08180822
:101190001608140812080F080D080B08090807089C
:1011A000050803080108FF07FC07FA07F807F60718
:1011B000F407F207F007EE07EC07EA07E807E6078F
:1011C000E407E207E007DE07DC07DA07D807D607FF
:1011D000D407D207D007CE07CC07CA07C807C6076F
:1011E000C407C207C007BE07BC07BA07B807B607DF
:1011F000B407B207B007AE07AC07AA07A807A6074F
:10120000A407A3074572723A204D415854454D50EA
:10121000204245440054656D706572617475726555
:101220002068656174656420626564207377697401
:1012300063686564206F66662E204D415854454DA5
:1012400050207472696767657265642021210045CA
:1012500072723A204D494E54454D50003A2045781F
:10126000747275646572207377697463686564204D
:101270006F66662E204D494E54454D50207472695C
:101280006767657265642021004572723A204D419E
:101290005854454D50003A20457874727564657213
:1012A000207377697463686564206F66662E204DCD
:1012B000415854454D502074726967676572656482
:1012C000202100202D20496E76616C6964206578AC
:1012D000747275646572206E756D6265722021008E
:1012E000504944204175746F74756E652066696E4F
:1012F0006973686564212050757420746865206C7A
:10130000617374204B702C204B6920616E64204BFC
:101310006420636F6E7374616E74732066726F6D98
:101320002061626F766520696E746F20436F6E6610
:10133000696775726174696F6E2E68005049442048
:101340004175746F74756E65206661696C656421A2
:101350002074696D656F75740020403A006F6B20D2
:10136000543A006F6B20423A005049442041757452
:101370006F74756E65206661696C656421205465C3
:101380006D706572617475726520746F6F20686925
:10139000676800204B643A2000204B693A20002007
:1013A0004B703A200020436C61737369632050498D
:1013B0004420002054753A2000204B753A2000202C
:1013C0006D61783A2000206D696E3A200020643A01
:1013D000200020626961733A200084002C01900093
:1013E000270196002201A2001D01AE001801C000D5
:1013F0001301CC000E01DE000901F000040102011E
:10140000FF001401FA002C01F5004401F000620114
:10141000EB008001E600A401E100C801DC00F2015C
:10142000D7001C02D2005202CD008802C800C402BC
:10143000C3000603BE004E03B9009C03B400F603CC
:10144000AF005604AA00C204A5003405A000B205EE
:101450009B003C069600CC0691006E078C001C0891
:101460008700D008820090097D005C0A78002E0B6E
:101470007300060C6E00EA0C6900C80D6400AC0E27
:101480005F008A0F5A00621055003A115000001296
:101490004B00C01246006E13410010143C00A6140D
:1014A00037002A1532009C152D00021628005C1604
:1014B0002300A4161E00E61619001C1714004C1772
:1014C0000F0070170A008E170500A61700008A008B
:1014D0002C0196002701A2002201A8001D01BA00DC
:1014E0001801C6001301D2000E01E4000901F60044
:1014F00004010801FF002001FA003801F500500145
:10150000F0006E01EB008C01E600AA01E100D401BD
:10151000DC00F801D7002802D2005802CD008E026C
:10152000C800D002C3001203BE005A03B900A803CA
:10153000B4000204AF006204AA00CE04A500400576
:10154000A000BE059B0048069600DE0691008007BD
:101550008C0028088700E2088200A2097D006E0A3C
:101560007800400B7300180C6E00F60C6900DA0D61
:101570006400B80E5F00960F5A00741055004611B3
:1015800050000C124B00C612460074134100161492
:101590003C00A61437002A1532009C152D000216B7
:1015A00028005C162300A4161E00E6161900161764
:1015B000140046170F006A170A0088170500A017C5
:1015C00000004D383420582059205A2045004361EE
:1015D0006E6E6F7420656E746572207375626469D7
:1015E000723A20004D3234004D32332025730061B1
:1015F00075746F25692E67006572726F722077723D
:101600006974696E6720746F2066696C65004E6F3F
:1016100074205344207072696E74696E67002F00E5
:101620005344207072696E74696E672062797465C4
:1016300020002E0044656C6574696F6E20666169D8
:101640006C65642C2046696C653A200046696C65BF
:101650002064656C657465643A002E006F70656E79
:10166000206661696C65642C2046696C653A2000CF
:1016700057726974696E6720746F2066696C653A89
:1016800020002E006F70656E206661696C65642CA9
:101690002046696C653A20002E006F70656E2066EA
:1016A00061696C65642C2046696C653A2000466966
:1016B0006C652073656C6563746564002053697A9A
:1016C000653A200046696C65206F70656E65643A06
:1016D00020002E006F70656E206661696C65642C59
:1016E0002046696C653A20004E6F772066726573FC
:1016F000682066696C653A20004E6F7720646F69D8
:101700006E672066696C653A20002220706F730056
:101710002220706172656E743A2200535542524F16
:101720005554494E452043414C4C207461726765C5
:10173000743A2200747279696E6720746F20636155
:101740006C6C207375622D67636F64652066696CCD
:101750006573207769746820746F6F206D616E798E
:10176000206C6576656C732E204D4158206C657633
:10177000656C2069733A0053442063617264206F82
:101780006B006F70656E526F6F74206661696C6577
:101790006400766F6C756D652E696E697420666184
:1017A000696C656400534420696E697420666169E0
:1017B0006C0046696C616D656E7420736574746944
:1017C0006E67733A2044697361626C65640020201F
:1017D000204D32303020440046696C616D656E7476
:1017E0002073657474696E67733A00204400204961
:1017F000002020204D3330312050005049442073C8
:10180000657474696E67733A00205A00205900208D
:10181000204D323036205800486F6D65206F666667
:1018200073657420286D6D293A00204500205A0008
:1018300020580020420020540020204D3230352016
:101840005300416476616E636564207661726961FC
:10185000626C65733A20533D4D696E206665656420
:101860007261746520286D6D2F73292C20543D4DB5
:10187000696E2074726176656C206665656472615C
:10188000746520286D6D2F73292C20423D6D696E83
:10189000696D756D207365676D656E742074696D13
:1018A0006520286D73292C20583D6D6178696D7510
:1018B0006D205859206A65726B20286D6D2F732931
:1018C0002C20205A3D6D6178696D756D205A206A13
:1018D00065726B20286D6D2F73292C2020453D6D7E
:1018E0006178696D756D2045206A65726B20286D81
:1018F0006D2F73290020540020204D3230342053A6
:1019000000416363656C65726174696F6E3A205360
:101910003D616363656C65726174696F6E2C205400
:101920003D7265747261637420616363656C657296
:101930006174696F6E00204500205A002059002014
:10194000204D3230312058004D6178696D756D2021
:10195000416363656C65726174696F6E20286D6D9B
:101960002F7332293A00204500205A0020590020C8
:10197000204D3230332058004D6178696D756D20EF
:1019800066656564726174657320286D6D2F7329B7
:101990003A00204500205A0020590020204D3932BD
:1019A00020580053746570732070657220756E69DD
:1019B000743A0048617264636F64656420446566CC
:1019C00061756C742053657474696E6773204C6F15
:1019D000616465640053746F70706564005072696F
:1019E0006E7465722073746F7070656420647565C1
:1019F00020746F206572726F72732E204669782092
:101A0000746865206572726F7220616E64207573F0
:101A100065204D39393920746F2072657374617295
:101A2000742E202854656D7065726174757265201E
:101A300069732072657365742E2053657420697410
:101A40002061667465722072657374617274696E68
:101A50006729004B494C4C4544005072696E7465CF
:101A6000722068616C7465642E206B696C6C282927
:101A70002063616C6C656421006F6B005265736557
:101A80006E643A20002200556E6B6E6F776E206395
:101A90006F6D6D616E643A2022007A5F6D61783AF5
:101AA00020007A5F6D696E3A2000795F6D61783A47
:101AB0002000795F6D696E3A2000785F6D61783A39
:101AC0002000785F6D696E3A2000205A3A00205954
:101AD0003A0020436F756E7420583A200020453A32
:101AE00000205A3A0020593A00583A004649524DCF
:101AF000574152455F4E414D453A4D61726C696E9A
:101B0000204649524D574152455F56455253494F21
:101B10004E3A322E302E3020534F555243455F43BC
:101B20004F44455F55524C3A687474702533412FC9
:101B30002F6769746875622E636F6D2F62712F4D08
:101B400061726C696E2050524F544F434F4C5F5638
:101B5000455253494F4E3A312E30204D414348496A
:101B60004E455F545950453A486570686573746FC7
:101B7000735F584C2045585452554445525F434F6B
:101B8000554E543A3120582D4649524D57415245F1
:101B90005F4C414E47554147453A20582D425549E3
:101BA0004C445F56455253494F4E3A2222200A0078
:101BB000486570686573746F73204F66662E0052B7
:101BC000656164790042656420646F6E652E002053
:101BD000423A0020453A00543A0042656420486584
:101BE0006174696E672E005072696E74696E672E3B
:101BF0002E2E0048656174696E6720646F6E652ED5
:101C00000020573A0020453A00543A004865617474
:101C1000696E672E2E2E002042403A0020403A0086
:101C2000202F003A00205400202F0020423A0020AC
:101C30002F006F6B20543A002569206D696E2C20AF
:101C4000256920736563005072696E74696E672E32
:101C50002E2E00507265737320746F207265737539
:101C60006D6500456E642066696C65206C697374EF
:101C700000426567696E2066696C65206C697374E3
:101C8000004E6F206D6F7665005072696E74696EDC
:101C9000672E2E2E005761697420666F722075734F
:101CA00065722E2E2E00536C6565702E2E2E00252B
:101CB0006920686F757273202569206D696E75746F
:101CC000657300446F6E65207072696E74696E672B
:101CD0002066696C650053746F70706564005072A3
:101CE000696E7465722073746F70706564206475BA
:101CF0006520746F206572726F72732E204669784A
:101D000020746865206572726F7220616E64207540
:101D10007365204D39393920746F20726573746191
:101D200072742E202854656D7065726174757265C9
:101D30002069732072657365742E20536574206961
:101D4000742061667465722072657374617274695F
:101D50006E6729004E6F204C696E65204E756D626E
:101D60006572207769746820636865636B73756D4D
:101D70002C204C617374204C696E653A20004E6FC4
:101D800020436865636B73756D2077697468206C98
:101D9000696E65206E756D6265722C204C6173747E
:101DA000204C696E653A2000636865636B73756DDE
:101DB000206D69736D617463682C204C61737420AD
:101DC0004C696E653A20004C696E65204E756D62F7
:101DD0006572206973206E6F74204C617374204C9F
:101DE000696E65204E756D6265722B312C204C61D9
:101DF0007374204C696E653A20004D3131300044D7
:101E00006F6E6520736176696E672066696C652EFA
:101E1000006F6B004D3239005265616479004D36B8
:101E20003030004D3235002020506C616E6E65728E
:101E300042756666657242797465733A2000204681
:101E4000726565204D656D6F72793A20004F63743D
:101E500020313920323031362031333A33383A327A
:101E600035004D61726C696E0020536F6674776146
:101E700072652052657365740020576174636864ED
:101E80006F67205265736574002042726F776E2011
:101E90006F7574205265736574002045787465729F
:101EA0006E616C20526573657400506F7765725572
:101EB00070007374617274002200656E71756575CF
:101EC00065696E672022002200656E717565756513
:101ED000696E67202200FFFFFF0000A0400000A005
:101EE0004000000040000048430000AF43000034C1
:101EF0004300000000000000000000000000004857
:101F0000430000AF43000034430000000000000025
:101F100000000000006563686F3A004572726F72DE
:101F20003A00646972206E6F7420666F756E64008B
:101F30004E414E494E495459494E46CDCCCC3D0AAE
:101F4000D7233C17B7D13877CC2B329595E6241F91
:101F5000B14F0A000020410000C84200401C46204A
:101F6000BCBE4CCA1B0E5AAEC59D740027314AC870
:101F700066C811241FBECFEFD1E2DEBFCDBF00E0A7
:101F80000CBFF89414BE88E10FB6F89480936000FB
:101F9000109260000FBE15E0A0E0B2E0ECEBF7EBB2
:101FA00001E00BBF02C007900D92AA3EB107D9F71E
:101FB00025E1AAEEB5E001C01D92A331B207E1F719
:101FC0001FE1C0E7DFE100E006C022970109FE0142
:101FD0000BBF0E941CD4CC36D10780E00807A9F7BC
:101FE0000E9465140C94CCDB0C9400001F920F929D
:101FF0000FB60F9211242F933F938F939F93AF931C
:10200000BF938091EB059091EC05A091ED05B09107
:10201000EE053091EA0523E0230F2D3720F40196D9
:10202000A11DB11D05C026E8230F0296A11DB11DFB
:102030002093EA058093EB059093EC05A093ED05C2
:10204000B093EE058091EF059091F005A091F10518
:10205000B091F2050196A11DB11D8093EF059093FB
:10206000F005A093F105B093F205BF91AF919F9158
:102070008F913F912F910F900FBE0F901F90189549
:102080002FB7F8946091EB057091EC058091ED0508
:102090009091EE052FBF08953FB7F8948091EF051A
:1020A0009091F005A091F105B091F20526B5A89B9D
:1020B00005C02F3F19F00196A11DB11D3FBFBA2FDA
:1020C000A92F982F8827820F911DA11DB11DBC013A
:1020D000CD01660F771F881F991F660F771F881F16
:1020E000991F0895CF92DF92EF92FF92CF93DF93E3
:1020F0006B017C010E944C10EB01C114D104E1047E
:10210000F104A9F00E9460140E944C106C1B7D0B1E
:10211000683E734038F081E0C81AD108E108F10840
:10212000C851DC4FC114D104E104F10459F7DF9127
:10213000CF91FF90EF90DF90CF900895823091057E
:1021400038F0880F991F880F991F05970197F1F7AD
:102150000895789484B5826084BD84B5816084BD1F
:1021600085B5826085BD85B5816085BDEEE6F0E010
:10217000808181608083E1E8F0E01082808182606C
:102180008083808181608083E0E8F0E080818160ED
:102190008083E1EBF0E0808184608083E0EBF0E01D
:1021A000808181608083E1E9F0E0808182608083CA
:1021B000808181608083E0E9F0E0808181608083BC
:1021C000E1EAF0E0808182608083808181608083A9
:1021D000E0EAF0E0808181608083E1E2F1E08081EB
:1021E00082608083808181608083E0E2F1E0808191
:1021F00081608083EAE7F0E0808184608083808171
:102200008260808380818160808380818068808318
:102210001092C10008951F93CF93DF93182FEB0105
:1022200061E00E943F12209729F460E0812F0E9414
:102230007D12BAC0CF3FD10529F461E0812F0E9401
:102240007D12B2C0412F50E0FA01E057FC4F44919B
:1022500050E0FA013197E231F10508F099C0EE58EB
:10226000FF4F0C94F4D384B5806884BDC7BD9CC077
:1022700084B5806284BDC8BD97C0E0E8F0E080818D
:1022800080688083D0938900C09388008DC0E0E887
:10229000F0E0808180628083D0938B00C0938A00BD
:1022A00083C0E0E8F0E0808188608083D0938D0077
:1022B000C0938C0079C0E0EBF0E08081806880837F
:1022C000C093B30071C0E0EBF0E080818062808356
:1022D000C093B40069C0E0E9F0E080818068808349
:1022E000D0939900C09398005FC0E0E9F0E080814E
:1022F00080628083D0939B00C0939A0055C0E0E930
:10230000F0E0808188608083D0939D00C0939C0022
:102310004BC0E0EAF0E080818068808380818F7B21
:102320008083D093A900C093A8003EC0E0EAF0E00B
:10233000808180628083D093AB00C093AA0034C0B8
:10234000E0EAF0E0808188608083D093AD00C093A4
:10235000AC002AC0E0E2F1E0808180688083D09305
:102360002901C093280120C0E0E2F1E08081806271
:102370008083D0932B01C0932A0116C0E0E2F1E0E4
:10238000808188608083D0932D01C0932C010CC084
:10239000C038D1052CF460E0812F0E947D1204C06A
:1023A00061E0812F0E947D12DF91CF911F910895EE
:1023B00090E0FC013197E231F10508F05FC0EC5785
:1023C000FF4F0C94F4D3E0E8F0E080818F778083B6
:1023D0000895E0E8F0E080818F7D80830895E0E853
:1023E000F0E08081877F8083089584B58F7784BDF6
:1023F000089584B58F7D84BD0895E0EBF0E0808181
:102400008F7780830895E0EBF0E080818F7D80837B
:102410000895E0E9F0E080818F7780830895E0E916
:10242000F0E080818F7D80830895E0E9F0E0808195
:10243000877F80830895E0EAF0E080818F77808352
:102440000895E0EAF0E080818F7D80830895E0EADE
:10245000F0E08081877F80830895E0E2F1E0808171
:102460008F7780830895E0E2F1E080818F7D808323
:102470000895E0E2F1E08081877F80830895CF9323
:10248000DF9390E0FC01EA51FC4F2491FC01E45CF5
:10249000FB4F8491882371F190E0880F991FFC0114
:1024A000EA53FB4FA591B49184559B4FFC01C59114
:1024B000D49161110BC08FB7F8949C912095922311
:1024C0009C93E8812E2328838FBF14C0623061F46F
:1024D0008FB7F8943C91922F909593239C93E88129
:1024E0002E2B28838FBF06C08FB7F894EC912E2B2C
:1024F0002C938FBFDF91CF9108951F93CF93DF93DC
:10250000C62F282F30E0F901E057FC4F8491F901E4
:10251000EA51FC4F1491F901E45CFB4FD491DD23A7
:10252000C9F081110E94D8112D2F30E0F901EE0F72
:10253000FF1FE455FB4FA591B4918FB7F894C111DB
:1025400005C0EC9110951E231C9303C0EC911E2B2B
:102550001C938FBFDF91CF911F910895CF93DF938D
:10256000282F30E0F901E057FC4F8491F901EA513E
:10257000FC4FD491F901E45CFB4FC491CC2399F05A
:1025800081110E94D8112C2F30E0F901EE0FFF1FAE
:10259000EE56FB4FA591B491EC91DE2381E090E0E3
:1025A00021F480E002C080E090E0DF91CF910895B7
:1025B0001F920F920FB60F9211240BB60F922F930A
:1025C0003F934F935F936F937F938F939F93AF93BB
:1025D000BF93EF93FF938091F7059091F805892BB6
:1025E00029F0E091F705F091F8051995FF91EF9129
:1025F000BF91AF919F918F917F916F915F914F911B
:102600003F912F910F900BBE0F900FBE0F901F9018
:1026100018951F920F920FB60F9211240BB60F92BE
:102620002F933F934F935F936F937F938F939F93DA
:10263000AF93BF93EF93FF938091F9059091FA05C3
:10264000892B29F0E091F905F091FA051995FF9190
:10265000EF91BF91AF919F918F917F916F915F911A
:102660004F913F912F910F900BBE0F900FBE0F9087
:102670001F9018951F920F920FB60F9211240BB650
:102680000F922F933F934F935F936F937F938F930B
:102690009F93AF93BF93EF93FF938091FB0590912E
:1026A000FC05892B29F0E091FB05F091FC051995BB
:1026B000FF91EF91BF91AF919F918F917F916F911A
:1026C0005F914F913F912F910F900BBE0F900FBED6
:1026D0000F901F9018951F920F920FB60F92112412
:1026E0000BB60F922F933F934F935F936F937F930C
:1026F0008F939F93AF93BF93EF93FF938091FD05CB
:102700009091FE05892B29F0E091FD05F091FE05E1
:102710001995FF91EF91BF91AF919F918F917F910B
:102720006F915F914F913F912F910F900BBE0F9042
:102730000FBE0F901F9018951F920F920FB60F9219
:1027400011240BB60F922F933F934F935F936F9388
:102750007F938F939F93AF93BF93EF93FF9380915A
:10276000F3059091F405892B29F0E091F305F091A0
:10277000F4051995FF91EF91BF91AF919F918F91C2
:102780007F916F915F914F913F912F910F900BBE71
:102790000F900FBE0F901F9018951F920F920FB6BB
:1027A0000F9211240BB60F922F933F934F935F9389
:1027B0006F937F938F939F93AF93BF93EF93FF9309
:1027C0008091F5059091F605892B29F0E091F505AA
:1027D000F091F6051995FF91EF91BF91AF919F91FF
:1027E0008F917F916F915F914F913F912F910F90BA
:1027F0000BBE0F900FBE0F901F9018951F920F9257
:102800000FB60F9211240BB60F922F933F934F9355
:102810005F936F937F938F939F93AF93BF93EF9348
:10282000FF938091FF0590910006892B29F0E0919C
:10283000FF05F09100061995FF91EF91BF91AF91BF
:102840009F918F917F916F915F914F913F912F91C8
:102850000F900BBE0F900FBE0F901F9018951F92F8
:102860000F920FB60F9211240BB60F922F933F9336
:102870004F935F936F937F938F939F93AF93BF9388
:10288000EF93FF938091010690910206892B29F026
:10289000E0910106F09102061995FF91EF91BF9129
:1028A000AF919F918F917F916F915F914F913F91E8
:1028B0002F910F900BBE0F900FBE0F901F90189589
:1028C000089580E090E0089508950E94A9100E9464
:1028D00064140E94739C0E94EFC680E090E0892BF4
:1028E00029F00E9400000E94EFC6FBCF0E94EFC6B5
:1028F000FDCFCF92DF92EF92FF920F931F93CF9372
:10290000DF936C0141155105A9F0062F172FEA013D
:10291000E12CF12CD8016D918D01D601ED91FC9146
:102920000190F081E02DC6011995E80EF91E21975E
:1029300089F702C0E12CF12CC701DF91CF911F91E3
:102940000F91FF90EF90DF90CF9008956115710582
:1029500081F0FB0101900020E9F73197AF01461BA0
:10296000570BDC01ED91FC910280F381E02D19956C
:10297000089580E090E00895DC01ED91FC910190D4
:10298000F081E02D199508958230A9F028F488236C
:1029900049F0813051F00895843021F1E8F085301C
:1029A00039F1089510926E000895EFE6F0E080810D
:1029B0008D7F80830895E0E7F0E080818D7F8083C4
:1029C00081E08093B000E1EBF0E08081887F84605B
:1029D00080831092B3000895E1E7F0E080818D7F5D
:1029E00080830895E2E7F0E080818D7F8083089501
:1029F000E3E7F0E080818D7F80830895CF93C82F37
:102A000080910A028C1307C0E0EEF4E084919FEFFE
:102A100090930A0201C08FEF0E94C41460E08C2FD3
:102A20000E947D12CF9108951F920F920FB60F92C0
:102A300011240BB60F922F933F934F935F936F9395
:102A40007F938F939F93AF93BF93EF93FF93809167
:102A5000060690910706A0910806B0910906892BF9
:102A60008A2B8B2B51F180910306E0910406F091A3
:102A7000050690818927808380910606909107063C
:102A8000A0910806B0910906181619061A061B0629
:102A9000C4F48091060690910706A0910806B091B3
:102AA00009060197A109B1098093060690930706CC
:102AB000A0930806B093090604C080910A020E9400
:102AC000FE14FF91EF91BF91AF919F918F917F91F4
:102AD0006F915F914F913F912F910F900BBE0F908F
:102AE0000FBE0F901F9018950E9400D80E9434D4FA
:102AF00008950E94CCD40895CF93DF93EC0160E059
:102B00008E810E947D1281E090E00E949E1061E023
:102B10008E810E947D1281E090E00E949E1060E014
:102B20008E810E947D1284E690E00E949E10DF91CB
:102B3000CF910895AF92BF92CF92DF92EF92FF9222
:102B40000F931F93CF93DF935C018C01095F1F4F9D
:102B5000C0E0D0E0C62ED12C780161E0F80181916F
:102B60008F010E943F12B6010C2E02C07595679529
:102B70000A94E2F76170F70180810E947D1221962C
:102B8000C430D10549F7C5010E947C15DF91CF9172
:102B90001F910F91FF90EF90DF90CF90BF90AF907B
:102BA0000895AF92BF92CF92DF92EF92FF920F9370
:102BB0001F93CF93DF935C018C01095F1F4FC0E02F
:102BC000D0E0C62ED12C780161E0F80181918F010F
:102BD0000E943F12B6010C2E02C0759567950A94AB
:102BE000E2F76170F70180810E947D122196C83062
:102BF000D10549F7C5010E947C15DF91CF911F9146
:102C00000F91FF90EF90DF90CF90BF90AF9008951D
:102C10001F93CF93DF93EC01162F642F8C810E94BA
:102C20007D128D818F3F19F060E00E947D128F85AB
:102C300084FF05C0612FCE010E94D11512C0812FE3
:102C400090E0BC0175956795759567957595679545
:102C500075956795CE010E949A15612FCE010E944D
:102C60009A15DF91CF911F91089540E061E00E9495
:102C7000081680ED97E00E949E100895443008F0F9
:102C800043E0FC012389421710F04FEF420FFC0193
:102C9000E40FF11D2489620F606840E00E9408166D
:102CA0000895FC016089262F2460208B6C6040E031
:102CB0000E9408160895CF93DF93EC01423018F07C
:102CC0008F8588608F874B8B1C8A80E48D8B6E8B01
:102CD00070E0605C7F4F6F8B222329F0413019F444
:102CE0008F8584608F8780E593EC0E949E1060E062
:102CF0008C810E947D1260E08E810E947D128D8108
:102D00008F3F19F060E00E947D126F8564FD1DC049
:102D100063E0CE010E949A1584E991E10E949E1021
:102D200063E0CE010E949A1584E991E10E949E1011
:102D300063E0CE010E949A1586E990E00E949E1001
:102D400062E0CE010E949A1519C0606240E0CE0197
:102D50000E94081684E991E10E949E106F856062CE
:102D600040E0CE010E94081686E990E00E949E1085
:102D70006F85606240E0CE010E9408166F85606238
:102D800040E0CE010E94081684E0888BCE010E94AC
:102D90005116CE010E94351682E0898B40E066E034
:102DA000CE010E940816DF91CF9108956F927F9215
:102DB0008F92AF92CF92EF920F931F93CF93DF93A7
:102DC000CDB7DEB73C01162F842FF3014483258352
:102DD0000683E782C086A18682869E8593879F852B
:102DE0009487988995879989968761E00E943F1218
:102DF000F30185818F3F19F061E00E943F1261E08D
:102E0000F30186810E943F12112319F0F301178606
:102E100003C080E1F301878720E041E060E1C30166
:102E20000E945B16DF91CF911F910F91EF90CF9091
:102E3000AF908F907F906F9008958F92AF92CF92C6
:102E4000EF920F93DC0113961C921E921297EDE203
:102E5000F3E0ED93FC931F921F921F921F928C2C14
:102E6000AE2CC02EE22E042F2FEF462F61E00E94E1
:102E7000D6160F900F900F900F900F91EF90CF906C
:102E8000AF908F900895FC0161896E7F618B6460C3
:102E900040E00E9408160895EF92FF920F931F934F
:102EA000CF93DF937C01D42FC52F6770660F660F19
:102EB000660F606440E00E9408160D2F1C2FC0E0D2
:102EC000D0E0D8016D918D01D701ED91FC91019079
:102ED000F081E02DC70119952196C830D10589F7F9
:102EE000DF91CF911F910F91FF90EF90089541E0F6
:102EF0000E94081681E090E00895389A84E690E0F8
:102F0000A0E0B0E08093340690933506A093360697
:102F1000B093370608950F931F93CF93DF93EB0180
:102F2000142F022F482F60E084E196E00E943E16A5
:102F3000612F84E196E00E94BC1411E1FE016491CE
:102F40006623A9F0111117C007C060E284E196E082
:102F50000E94BC14C150C9F7602F84E196E00E9422
:102F6000BC1460E284E196E00E94BC140BC0112303
:102F700099F3C12FEACF84E196E00E94BC14219618
:102F80001150DCCFDF91CF911F910F910895FF92E7
:102F90000F931F93CF93DF93F62E172FC42F022F7B
:102FA000482F60E084E196E00E943E166C2F84E199
:102FB00096E00E94BC14CF2DD12F11E169916623B8
:102FC000A9F0111117C007C060E284E196E00E94E9
:102FD000BC14C150C9F7602F84E196E00E94BC1474
:102FE00060E284E196E00E94BC140AC0112399F3C8
:102FF000C12FEACF84E196E00E94BC141150DECFCD
:10300000DF91CF911F910F91FF900895682F84E178
:1030100096E00E94BC140895BC0184E196E00E94F1
:10302000A614089584E196E00E9435160895CF9382
:10303000DF93CDB7DEB7C054D1090FB6F894DEBF29
:103040000FBECDBF88E0E4EBF2E0DE01D99601903F
:103050000D928A95E1F788E0ECEBF2E0DE01D19683
:1030600001900D928A95E1F788E0E4ECF2E0DE0150
:10307000999601900D928A95E1F788E0ECECF2E0E8
:10308000DE01919601900D928A95E1F788E0E4EDDA
:10309000F2E0DE01599601900D928A95E1F788E001
:1030A000ECEDF2E0DE01519601900D928A95E1F788
:1030B00088E0E4EEF2E0DE01199601900D928A9527
:1030C000E1F788E0ECEEF2E0DE01119601900D925E
:1030D0008A95E1F720E044E064E184E196E00E9413
:1030E0005B16AE01475C5F4F60E084E196E00E94B2
:1030F0004C17AE014F5C5F4F61E084E196E00E94A7
:103100004C17AE01475D5F4F62E084E196E00E949C
:103110004C17AE014F5D5F4F63E084E196E00E9483
:103120004C17AE01475E5F4F64E084E196E00E9479
:103130004C17AE014F5E5F4F65E084E196E00E9460
:103140004C17AE01475F5F4F66E084E196E00E9456
:103150004C17AE014F5F5F4F67E084E196E00E943D
:103160004C1784E196E00E94431784E196E00E94A8
:103170003516C05CDF4F0FB6F894DEBF0FBECDBF73
:10318000DF91CF91089586B186FB882780F991E081
:103190008927349B8260329B84600895482F84E1A4
:1031A00096E00E943E1608958091390610923906E5
:1031B000089580913F0610923F0608958091380649
:1031C0001092380608951092390610923F06109218
:1031D0003806089589E794E390934A068093490658
:1031E0000E94E318089590934A068093490610922E
:1031F000300610923E0610923D060E94E318089594
:1032000083EE93E20E94F3180895CF93DF938091A9
:10321000670690916806009761F48DEB91E00E943B
:103220007615EC010E941ECBD0936806C09367060A
:1032300002C00E94D9CD8FEF80932E0610923E06D9
:1032400010923D0680916706909168060E947ACDA3
:1032500082E08093540689E699E20E94F318DF9198
:10326000CF9108958BE69AE10E94F318089583E5C3
:103270009BE10E94F31808958DEC9CECACECBDE34F
:103280008093560690935706A0935806B09359061C
:103290008BEE9FE10E94F318089580E090E0A0E893
:1032A000BFE38093560690935706A0935806B093B9
:1032B00059068BEE9FE10E94F318089580E090E09C
:1032C000A0E2B1E48093560690935706A093580667
:1032D000B09359068BEE9FE10E94F318089583E3A3
:1032E0009DE10E94F31808958FE89EE10E94F31873
:1032F000089510924B0684ED91E20E94F318089510
:10330000FC0119950E94E3180895FC0119950E948B
:10331000E318089590934A06809349061092300668
:1033200010923E0610923D060E94E3180895909375
:103330004A068093490610922F0682E08093540635
:103340000E94E318089581E080934B060E9440108C
:10335000DC01CB018C509E4FAF4FBF4F8093500686
:1033600090935106A0935206B093530680EB93E3DB
:1033700090934A06809349060E94E318089581E0DD
:1033800080934B060E944010DC01CB018C509E4F75
:10339000AF4FBF4F8093500690935106A0935206B3
:1033A000B093530687EE92E390934A0680934906C2
:1033B0000E94E318089581E080934B060E9440101C
:1033C000DC01CB018C509E4FAF4FBF4F8093500616
:1033D00090935106A0935206B09353068EE192E368
:1033E00090934A06809349060E94E318089581E06D
:1033F00080934B060E944010DC01CB018C509E4F05
:10340000AF4FBF4F8093500690935106A093520642
:10341000B09353068CE791E390934A068093490654
:103420000E94E318089585E09CE390934A068093F8
:1034300049060E94E318089510923E0610923D0638
:103440008DEA9BE390934A06809349060E94E31815
:10345000089510923E0610923D0685E59BE39093F9
:103460004A06809349060E94E318089510923E068A
:1034700010923D0682ED90E09093A80E8093A70EE7
:103480008DEE9AE390934A06809349060E94E318D2
:10349000089581E0809355060E94361A089582E0CF
:1034A000809355060E94361A08950E94C31880938F
:1034B0003C0680933B0610923A06089581E0809383
:1034C0003A0608950E94C3188093420680934106ED
:1034D000109240060895FF920F931F93CF93DF93AE
:1034E00081E08093400680913D0690913E068130B8
:1034F000904820F010923E0610923D0680913D06C5
:1035000090913E0699230CF4039695958795959591
:1035100087952091300630E08217930714F480934A
:10352000300680915406823031F40E94121881E0F6
:10353000809354060BC00E94D418811104C00E94CD
:10354000D918882319F081E0809354061091300631
:1035500000E0C7E0D0E0F12C111137C08091540693
:103560008130E1F480913D0690913E0699230CF460
:1035700003969595879595958795892B41F423E03A
:1035800043E06EE878E0802F0E948B1707C023E0AD
:1035900040E26EE878E0802F0E948B1780913D0614
:1035A00090913E0699230CF40396959587959595F1
:1035B0008795892B09F041C00E94DE188823E9F124
:1035C00087EE98E20E94801968C01130B1F58091B1
:1035D00054068130E1F480913D0690913E06992396
:1035E0000CF403969595879595958795019741F4E9
:1035F00020E24EE363E878E0802F0E948B1707C03B
:1036000020E240E263E878E0802F0E948B178091EF
:103610003D0690913E0699230CF403969595879567
:1036200095958795019749F40E94DE18882329F023
:103630008CE19CE20E94851930C020913D063091BA
:103640003E062830310524F0D0933E06C0933D0657
:1036500020913D0630913E06332314F42D5F3F4FF9
:103660003595279535952795B901772740913006EF
:1036700050E04C5F5F4F6417750744F01DEF120F69
:10368000109330060E94621A0F2D66CF0E94621AB4
:103690000F5F1F5F043008F45FCFDF91CF911F9160
:1036A0000F91FF900895FF920F931F93CF93DF9395
:1036B00081E08093400680913D0690913E068130E6
:1036C000904820F010923E0610923D0680913D06F3
:1036D00090913E0699230CF40396959587959595C0
:1036E00087952091300630E08217930714F4809379
:1036F000300680915406823031F40E94121881E025
:10370000809354060BC00E94D418811104C00E94FB
:10371000D918882319F081E080935406109130065F
:1037200000E0C3E1D0E0F12C111138C080915406C3
:103730008130E1F480913D0690913E0699230CF48E
:1037400003969595879595958795892B41F423E068
:1037500043E062E678E0802F0E948B1707C023E0E9
:1037600040E262E678E0802F0E948B1780913D0650
:1037700090913E0699230CF403969595879595951F
:103780008795892B09F07EC00E94DE18882309F4F2
:1037900079C080E099E10E9480195FC11130C1F5C4
:1037A000809154068130E1F480913D0690913E066F
:1037B00099230CF403969595879595958795019790
:1037C00041F42EE74EE369E578E0802F0E948B17E5
:1037D00007C02EE740E269E578E0802F0E948B1752
:1037E00080913D0690913E0699230CF403969595A1
:1037F000879595958795019709F07EC00E94DE1800
:10380000882309F479C089E799E10E948A1925C1C2
:103810001230C1F5809154068130E1F480913D066B
:1038200090913E0699230CF403969595879595956E
:103830008795029741F42EE74EE36FE478E0802FFE
:103840000E948B1707C02EE740E26FE478E0802FDC
:103850000E948B1780913D0690913E0699230CF4AF
:1038600003969595879595958795029709F0EDC0F4
:103870000E94DE18882309F4E8C083E39DE10E94DA
:103880008A19EBC01330C1F5809154068130E1F400
:1038900080913D0690913E0699230CF403969595F0
:1038A000879595958795039741F420E24EE363E46D
:1038B00078E0802F0E948B1707C020E240E263E48B
:1038C00078E0802F0E948B1780913D0690913E06F4
:1038D00099230CF40396959587959595879503976D
:1038E00009F083C00E94DE18882309F47EC083ECAF
:1038F0009DE20E948519B1C02091A70E3091A80EBB
:103900002B303105D4F1143009F06FC0809154068A
:103910008130E1F480913D0690913E0699230CF4AC
:1039200003969595879595958795049741F420E2A0
:103930004EE36AE378E0802F0E948B1707C020E2F5
:1039400040E26AE378E0802F0E948B1780913D0669
:1039500090913E0699230CF403969595879595953D
:103960008795049709F041C00E94DE188823E9F189
:1039700088E199E20E94851970C01430B1F58091F8
:1039800054068130E1F480913D0690913E069923E2
:103990000CF403969595879595958795049741F432
:1039A00020E24EE362E378E0802F0E948B1707C08D
:1039B00020E240E262E378E0802F0E948B17809142
:1039C0003D0690913E0699230CF4039695958795B4
:1039D00095958795049749F40E94DE18882329F06D
:1039E0008DEE98E20E94851938C080913D06909135
:1039F0003E06449724F0D0933E06C0933D062091A6
:103A00003D0630913E06332314F42D5F3F4F35952C
:103A1000279535952795B90177274091300650E0D5
:103A20004C5F5F4F6417750744F01DEF120F109342
:103A300030060E94621A0F2D77CE0E94621A0F5F25
:103A40001F5F043008F470CE08C08091A70E9091DB
:103A5000A80E0B970CF057CFC8CFDF91CF911F91D5
:103A60000F91FF900895FF920F931F93CF93DF93D1
:103A700081E08093400680913D0690913E06813022
:103A8000904820F010923E0610923D0680913D062F
:103A900090913E0699230CF40396959587959595FC
:103AA00087952091300630E08217930714F48093B5
:103AB000300680915406823031F40E94121881E061
:103AC000809354060BC00E94D418811104C00E9438
:103AD000D918882319F081E080935406109130069C
:103AE00000E0CFE0D0E0F12C111138C080915406F5
:103AF0008130E1F480913D0690913E0699230CF4CB
:103B000003969595879595958795892B41F423E0A4
:103B100043E069E078E0802F0E948B1707C023E024
:103B200040E269E078E0802F0E948B1780913D068B
:103B300090913E0699230CF403969595879595955B
:103B40008795892B09F07DC00E94DE18882309F42F
:103B500078C087E399E10E948019DBC01130C1F57C
:103B6000809154068130E1F480913D0690913E06AB
:103B700099230CF4039695958795959587950197CC
:103B800041F420E24EE36FEF77E0802F0E948B1725
:103B900007C020E240E26FEF77E0802F0E948B1792
:103BA00080913D0690913E0699230CF403969595DD
:103BB000879595958795019709F07BC00E94DE183F
:103BC000882309F476C08BEF97E00E94C89BA1C0C0
:103BD0001230B9F5809154068130E1F480913D06B0
:103BE00090913E0699230CF40396959587959595AB
:103BF0008795029741F420E24EE36AEE77E0802F4A
:103C00000E948B1707C020E240E26AEE77E0802F27
:103C10000E948B1780913D0690913E0699230CF4EB
:103C200003969595879595958795029709F041C0DC
:103C30000E94DE188823E9F186EE97E00E94C89B77
:103C400068C01330B1F5809154068130E1F4809161
:103C50003D0690913E0699230CF403969595879521
:103C600095958795039741F42EE74EE362EE77E052
:103C7000802F0E948B1707C02EE740E262EE77E0AC
:103C8000802F0E948B1780913D0690913E069923CC
:103C90000CF403969595879595958795039749F428
:103CA0000E94DE18882329F08FE89EE10E948A197D
:103CB00030C020913D0630913E062031310524F080
:103CC000D0933E06C0933D0620913D0630913E06BE
:103CD000332314F42D5F3F4F359527953595279560
:103CE000B90177274091300650E04C5F5F4F641771
:103CF000750744F01DEF120F109330060E94621AF0
:103D00000F2DF2CE0E94621A0F5F1F5F043008F47D
:103D1000EBCEDF91CF911F910F91FF900895FF920D
:103D20000F931F93CF93DF9381E0809340068091A0
:103D30003D0690913E068130904820F010923E065C
:103D400010923D0680913D0690913E0699230CF419
:103D5000039695958795959587952091300630E047
:103D60008217930714F480933006809154068230B2
:103D700031F40E94121881E0809354060BC00E9417
:103D8000D418811104C00E94D918882319F081E049
:103D9000809354061091300600E0CFE0D0E0F12C83
:103DA000111138C0809154068130E1F480913D06B4
:103DB00090913E0699230CF40396959587959595D9
:103DC0008795892B41F423E043E06DED77E0802F68
:103DD0000E948B1707C023E040E26DED77E0802F53
:103DE0000E948B1780913D0690913E0699230CF41A
:103DF00003969595879595958795892B09F07DC0B4
:103E00000E94DE18882309F478C08FE699E10E94A9
:103E10008019DBC01130C1F5809154068130E1F486
:103E200080913D0690913E0699230CF4039695955A
:103E3000879595958795019741F420E24EE363EDD0
:103E400077E0802F0E948B1707C020E240E263EDED
:103E500077E0802F0E948B1780913D0690913E065F
:103E600099230CF4039695958795959587950197D9
:103E700009F07BC00E94DE18882309F476C08EE525
:103E800099E10E948519A1C01230B9F580915406BC
:103E90008130E1F480913D0690913E0699230CF427
:103EA00003969595879595958795029741F420E21D
:103EB0004EE36AEC77E0802F0E948B1707C020E268
:103EC00040E26AEC77E0802F0E948B1780913D06DC
:103ED00090913E0699230CF40396959587959595B8
:103EE0008795029709F041C00E94DE188823E9F106
:103EF0008DE499E10E94851968C01330B1F5809175
:103F000054068130E1F480913D0690913E0699235C
:103F10000CF403969595879595958795039741F4AD
:103F200020E24EE36FEB77E0802F0E948B1707C0F3
:103F300020E240E26FEB77E0802F0E948B178091A8
:103F40003D0690913E0699230CF40396959587952E
:103F500095958795039749F40E94DE18882329F0E8
:103F60008CE399E10E94851930C020913D06309183
:103F70003E062031310524F0D0933E06C0933D0625
:103F800020913D0630913E06332314F42D5F3F4FC0
:103F90003595279535952795B901772740913006B6
:103FA00050E04C5F5F4F6417750744F01DEF120F30
:103FB000109330060E94621A0F2DF2CE0E94621AF0
:103FC0000F5F1F5F043008F4EBCEDF91CF911F919C
:103FD0000F91FF900895FF920F931F93CF93DF935C
:103FE00081E08093400680913D0690913E068130AD
:103FF000904820F010923E0610923D0680913D06BA
:1040000090913E0699230CF4039695958795959586
:1040100087952091300630E08217930714F480933F
:10402000300680915406823031F40E94121881E0EB
:10403000809354060BC00E94D418811104C00E94C2
:10404000D918882319F081E080935406C091300676
:10405000D0E00F2EF5E0FF2EF02D13E000E0C111AF
:1040600038C0809154068130E1F480913D069091F2
:104070003E0699230CF4039695958795959587951B
:10408000892B41F4212F412F6AEB77E08D2F0E947D
:104090008B1707C0212F40E26AEB77E08D2F0E943B
:1040A0008B1780913D0690913E0699230CF4039660
:1040B0009595879595958795892B09F07EC00E94E7
:1040C000DE18882309F479C084E799E10E948019F9
:1040D00065C1C130C1F5809154068130E1F4809111
:1040E0003D0690913E0699230CF40396959587958D
:1040F00095958795019741F42EE74EE363EB77E0C2
:104100008D2F0E948B1707C02EE740E263EB77E00C
:104110008D2F0E948B1780913D0690913E0699232A
:104120000CF403969595879595958795019709F0D9
:104130000CC10E94DE18882309F407C183EA99E1C3
:104140000E948A192BC1C230C1F58091540681307A
:10415000E1F480913D0690913E0699230CF403967C
:104160009595879595958795029741F42EE74EE3AF
:104170006CEA77E08D2F0E948B1707C02EE740E294
:104180006CEA77E08D2F0E948B1780913D0690910D
:104190003E0699230CF403969595879595958795FA
:1041A000029709F0E5C00E94DE18882309F4E0C0F8
:1041B0008FEB99E10E948A19F1C020E030E040E2E3
:1041C00051E460915606709157068091580690917F
:1041D00059060E94F4CF88230CF072C0C330C1F599
:1041E000809154068130E1F480913D0690913E0625
:1041F00099230CF403969595879595958795039744
:1042000041F42EE74EE365EA77E08D2F0E948B178D
:1042100007C02EE740E265EA77E08D2F0E948B17FA
:1042200080913D0690913E0699230CF40396959556
:10423000879595958795039709F0ACC00E94DE1885
:10424000882309F4A7C08BED99E10E948A19A6C0C2
:10425000C430C1F5809154068130E1F480913D066F
:1042600090913E0699230CF4039695958795959524
:104270008795049741F42EE74EE36CE977E08D2FA4
:104280000E948B1707C02EE740E26CE977E08D2F84
:104290000E948B1780913D0690913E0699230CF465
:1042A00003969595879595958795049769F40E944F
:1042B000DE18882359F087EF99E10E948A196EC0B1
:1042C000E12F05C0EF2D03C0EF2D01C0EF2DF0E071
:1042D00060913D0670913E06772314F46D5F7F4F29
:1042E00075956795759567956E177F074CF0EE0F7E
:1042F000FF1FEE0FFF1F3197F0933E06E0933D0640
:1043000060913D0670913E06772314F46D5F7F4FF8
:104310007595679575956795DB01BB27E09130062C
:10432000F0E03496AE17BF0744F0CDEFC60FC09350
:1043300030060E94621AD02F92CE0E94621ADF5F6E
:10434000CF5FD43008F48BCE29C020E030E040E2CB
:1043500051E46091560670915706809158069091ED
:1043600059060E94F4CF88230CF472CFE12FAFCF0F
:1043700020E030E040E251E460915606709157062B
:1043800080915806909159060E94F4CF882324F01A
:10439000E12F9DCFEF2D9BCFEF2D99CFDF91CF91C7
:1043A0001F910F91FF900895FF920F931F93CF934A
:1043B000DF9381E08093400680913D0690913E0618
:1043C0008130904820F010923E0610923D06809178
:1043D0003D0690913E0699230CF40396959587959A
:1043E000959587952091300630E08217930714F455
:1043F0008093300680915406823031F40E94121866
:1044000081E0809354060BC00E94D418811104C02F
:104410000E94D918882319F081E0809354061091E6
:10442000300600E0CBE0D0E0F12C111138C08091D3
:1044300054068130E1F480913D0690913E06992327
:104440000CF403969595879595958795892B41F45E
:1044500023E043E068E877E0802F0E948B1707C0D5
:1044600023E040E268E877E0802F0E948B1780917C
:104470003D0690913E0699230CF4039695958795F9
:1044800095958795892B09F07BC00E94DE188823BB
:1044900009F476C087E399E10E948019A1C0113028
:1044A000B9F5809154068130E1F480913D069091F8
:1044B0003E0699230CF403969595879595958795D7
:1044C000019741F42EE74EE363E877E0802F0E94E6
:1044D0008B1707C02EE740E263E877E0802F0E9449
:1044E0008B1780913D0690913E0699230CF403961C
:1044F0009595879595958795019709F041C00E94FC
:10450000DE188823E9F189E49AE10E948A1968C0DB
:104510001230B1F5809154068130E1F480913D066E
:1045200090913E0699230CF4039695958795959561
:104530008795029741F42EE74EE36CE777E0802FF2
:104540000E948B1707C02EE740E26CE777E0802FD0
:104550000E948B1780913D0690913E0699230CF4A2
:1045600003969595879595958795029749F40E94AE
:10457000DE18882329F08FE49AE10E948A1930C05E
:1045800020913D0630913E062C30310524F0D09329
:104590003E06C0933D0620913D0630913E063323F2
:1045A00014F42D5F3F4F3595279535952795B90123
:1045B00077274091300650E04C5F5F4F64177507D6
:1045C00044F01DEF120F109330060E94621A0F2D57
:1045D0002CCF0E94621A0F5F1F5F043008F425CFB2
:1045E000DF91CF911F910F91FF9008950F931F932B
:1045F000CF93DF9381E08093400680913D069091B8
:104600003E068130904820F010923E0610923D0602
:1046100080913D0690913E0699230CF40396959562
:104620008795959587952091300630E082179307FE
:1046300014F48093300680915406823031F40E9445
:10464000121881E0809354060BC00E94D418811187
:1046500004C00E94D918882319F081E08093540681
:104660001091300600E0C7E0D0E0111139C0809110
:1046700054068130E1F480913D0690913E069923E5
:104680000CF403969595879595958795892B41F41C
:1046900023E043E063E677E0802F0E948B1707C09A
:1046A00023E040E263E677E0802F0E948B172091A1
:1046B0003D0630913E06332314F42D5F3F4F359570
:1046C000279535952795232B09F075C00E94DE1894
:1046D000882309F470C089E799E10E9480196EC0AF
:1046E000109230111130B1F5809154068130E1F40F
:1046F00080913D0690913E0699230CF40396959582
:10470000879595958795019741F420E24EE364E5FE
:1047100077E0802F0E948B1707C020E240E264E51B
:1047200077E0802F0E948B1780913D0690913E0686
:1047300099230CF403969595879595958795019700
:1047400049F40E94DE18882329F08FE497E00E9444
:10475000C89B34C020913D0630913E06283031057B
:1047600024F0D0933E06C0933D0620913D06309143
:104770003E06332314F42D5F3F4F3595279535952D
:104780002795B90177274091300650E04C5F5F4F85
:104790006417750744F01DEF120F109330060E9446
:1047A000621A00E062CF0E94621A0F5F1F5F04303E
:1047B00008F45BCF03C010923011CCCFDF91CF91C2
:1047C0001F910F9108954F925F927F928F929F92C7
:1047D000AF92BF92CF92EF92FF920F931F93CF931E
:1047E000DF9381E08093400680913D0690913E06E4
:1047F0008130904820F010923E0610923D06809144
:104800003D0690913E0699230CF403969595879565
:10481000959587952091300630E08217930714F420
:104820008093300680915406823031F40E94121831
:1048300081E0809354060BC00E94D418811104C0FB
:104840000E94D918882319F081E0809354061091B2
:104850003006C12C0F2EFDE64F2EF1E15F2EF02D1C
:10486000992493946894BB24B1F8CEE6D1E10F2E3D
:10487000FCECEF2EF3E1FF2EF02DA12C111138C02E
:10488000809154068130E1F480913D0690913E067E
:1048900099230CF403969595879595958795892B83
:1048A00041F423E043E06BE379E08C2D0E948B1709
:1048B00007C023E040E26BE379E08C2D0E948B1768
:1048C00080913D0690913E0699230CF403969595B0
:1048D000879595958795892B09F0E9C20E94DE1886
:1048E000882309F4E4C287EE98E20E948019ECC2A2
:1048F0008881882309F4C3C0F7018081882309F4E3
:1049000083C0F20180818823D1F11130D1F58091EB
:1049100054068130E1F480913D0690913E06992342
:104920000CF403969595879595958795019741F495
:1049300020E24EE36FE279E08C2D0E948B1707C0D6
:1049400020E240E26FE279E08C2D0E948B1780918B
:104950003D0690913E0699230CF403969595879514
:1049600095958795019709F0A7C20E94DE188823C4
:1049700009F4A2C284E599E20E948519A5C2892C96
:1049800001C08B2C81123DC0809154068130F9F416
:1049900080913D0690913E0699230CF403969595DF
:1049A000879595958795282D30E08217930741F4D8
:1049B0002EE74EE364E279E08C2D0E948B1707C04E
:1049C0002EE740E264E279E08C2D0E948B17209163
:1049D0003D0630913E06332314F42D5F3F4F35954D
:1049E000279535952795482D50E02417350749F42C
:1049F0000E94DE18882329F082E399E10E948A1937
:104A000063C201E0080D79C0113009F06DC08091DA
:104A100054068130E1F480913D0690913E06992341
:104A20000CF403969595879595958795019741F494
:104A30002EE74EE366E179E08C2D0E948B1707C0CC
:104A40002EE740E266E179E08C2D0E948B17809181
:104A50003D0690913E0699230CF403969595879513
:104A600095958795019709F041C00E94DE1888232B
:104A700009F43EC085E099E10E948A1925C21130EF
:104A8000C9F5809154068130E1F480913D06909102
:104A90003E0699230CF403969595879595958795F1
:104AA000019741F420E24EE36BE079E08C2D0E9407
:104AB0008B1707C020E240E26BE079E08C2D0E946A
:104AC0008B1780913D0690913E0699230CF4039636
:104AD0009595879595958795019771F40E94DE18B5
:104AE0008111F2C10B2D09C00B2D07C00B2D05C084
:104AF0000B2D03C00B2D01C00B2D0E94D76481111B
:104B000005C0F2018081882309F408C101133DC06A
:104B1000809154068130F9F480913D0690913E06D3
:104B200099230CF403969595879595958795202F55
:104B300030E08217930741F420E24EE36BEF78E018
:104B40008C2D0E948B1707C020E240E26BEF78E0CB
:104B50008C2D0E948B1720913D0630913E06332309
:104B600014F42D5F3F4F3595279535952795802F68
:104B700090E02817390749F40E94DE18882329F0AD
:104B80008DE399E20E9485199FC177247394700E7A
:104B900071123DC0809154068130F9F480913D0638
:104BA00090913E0699230CF40396959587959595DB
:104BB0008795272D30E08217930741F42EE74EE3C7
:104BC0006FEE78E08C2D0E948B1707C02EE740E235
:104BD0006FEE78E08C2D0E948B1720913D0630916E
:104BE0003E06332314F42D5F3F4F359527953595B9
:104BF0002795872D90E02817390749F40E94DE1881
:104C0000882329F086E39AE10E948A195DC168949D
:104C1000772471F8700E71123CC080915406813077
:104C2000F9F480913D0690913E0699230CF4039689
:104C30009595879595958795272D30E08217930751
:104C400041F42EE74EE36BEE78E08C2D0E948B173B
:104C500007C02EE740E26BEE78E08C2D0E948B17A8
:104C600080913D0690913E0699230CF4039695950C
:104C7000879595958795272D30E08217930749F4FE
:104C80000E94DE18882329F089E29AE10E948A199D
:104C90001BC10F2EF3E07F2EF02D700E71123CC061
:104CA000809154068130F9F480913D0690913E0642
:104CB00099230CF403969595879595958795272DBF
:104CC00030E08217930741F42EE74EE365EE78E07B
:104CD0008C2D0E948B1707C02EE740E265EE78E02E
:104CE0008C2D0E948B1780913D0690913E06992352
:104CF0000CF403969595879595958795272D30E02B
:104D00008217930749F40E94DE18882329F08CE16A
:104D10009AE10E948A19D8C00C5F40C001133DC0BF
:104D2000809154068130F9F480913D0690913E06C1
:104D300099230CF403969595879595958795202F43
:104D400030E08217930741F42EE74EE36DED78E0F3
:104D50008C2D0E948B1707C02EE740E26DED78E0A6
:104D60008C2D0E948B1720913D0630913E063323F7
:104D700014F42D5F3F4F3595279535952795802F56
:104D800090E02817390749F40E94DE18882329F09B
:104D900087E399E10E948A1997C00F5F011344C00D
:104DA000809154068130F9F480913D0690913E0641
:104DB00099230CF403969595879595958795202FC3
:104DC00030E08217930741F420E24EE365ED78E08E
:104DD0008C2D0E948B1707C020E240E265ED78E041
:104DE0008C2D0E948B1720913D0630913E06332377
:104DF00014F42D5F3F4F3595279535952795402F16
:104E000050E02417350781F40E94DE18882361F0F2
:104E100083E19AE190934A068093490610922F0607
:104E200082E08093540650C088248394800E882D9D
:104E300090E020913D0630913E06332314F42D5F1F
:104E40003F4F3595279535952795281739074CF00D
:104E5000880F991F880F991F019790933E068093A2
:104E60003D0620913D0630913E06332314F42D5F1C
:104E70003F4F3595279535952795A9015527809161
:104E8000300690E004964817590744F01DEF120FC2
:104E9000109330060E94621ACA2CF0CC0E94621A4B
:104EA000C3941F5FF3E0FC1508F0E8CC0DC08881C7
:104EB000811104C00B2D21CE8B2CA3CDF701808155
:104EC00081111FCD0B2D19CEDF91CF911F910F9125
:104ED000FF90EF90CF90BF90AF909F908F907F907A
:104EE0005F904F90089510924B06089581E0809353
:104EF0004B060895E3E7F0E08081816080830E94A3
:104F0000551A0E94621A0895CF93DF930E941718D2
:104F100060E08FE10E943F1260E081E20E943F1258
:104F2000469A449A60E083E20E943F12429A60E00F
:104F300081E30E943F128FB7F894EBE0F1E090819B
:104F4000916090838FBF80910901809581708093DB
:104F50002C0683E08093200189E18093210187E082
:104F60008093290180ED809328010E947A2789E7A8
:104F700094E390934A068093490610924806109253
:104F800047060E944010609350067093510680932C
:104F90005206909353060E94401060934C06709303
:104FA0004D0680934E0690934F060E9440106093EA
:104FB00043067093440680934506909346061092EC
:104FC0004B060E94551A0E94D4180E94621A0E9431
:104FD000D91810923E0610923D060E94DE18A2E3F8
:104FE000B3E09CE4E0ECF0E0C6ECD0E0808185FF2B
:104FF000FDCF98839D919111F9CFE0ECF0E0808195
:1050000085FFFDCF8AE08093C600DF91CF910895A0
:1050100080932F0682E0809354060895880F991F8D
:10502000880F991F880F991FA0E0B0E08093340685
:1050300090933506A0933606B09337060895809373
:105040005406089520913106211107C044E150E033
:10505000BC018BE092E00E94BAD8089520913106FD
:10506000211107C044E150E0BC018BE092E00E94B6
:1050700034D808950F931F93CF93C82F80910901BF
:105080008095817090912C06981731F182E0809381
:105090005406809109018095817080932C060E94AE
:1050A000171880912C06882361F08BE691E10E940D
:1050B000827F8DE499E00E942E2882E0809354063E
:1050C0000BC08BE691E10E949A8080E499E00E94F7
:1050D0002E2882E0809354068091470690914806DE
:1050E0008957944361F080914B06811108C08091EB
:1050F0003906811104C080913F06882381F00E9407
:105100004010AB01BC01405D5A486F4F7F4F409348
:105110004C0650934D0660934E0670934F060E94C6
:10512000401000914C0610914D0620914E06309192
:105130004F06061717072807390710F40E94EA18C8
:1051400020914706309148068091490690914A0681
:105150002817390729F082E0809354060E94E3184B
:10516000E0914906F0914A06F0934806E09347061D
:1051700080916D11882331F1C11124C00E9440102B
:105180000091430610914406209145063091460651
:105190000617170728073907B0F4E0914706F09182
:1051A000480619950E944010DC01CB01CC96A11D48
:1051B000B11D8093430690934406A0934506B09397
:1051C000460601C01995CF911F910F9108950E9435
:1051D000EA1881E00E943A280895CF93DF9300D027
:1051E0001F92CDB7DEB780E090E0A8E4B3E48983F6
:1051F0009A83AB83BC8360E0CE0101960E949D73CD
:1052000082E390E09093A60E8093A50E10922F114A
:1052100010922E110E9488740E94E72880E00E945C
:105220003A280F900F900F900F90DF91CF91089533
:10523000CF93DF9300D01F92CDB7DEB719821A82C9
:105240001B821C8260E0CE0101960E949D73109229
:10525000A60E1092A50E8FEF90E090932F118093E1
:105260002E110E94E72880E00E943A280F900F90AC
:105270000F900F90DF91CF910895CF93C1E0C0932D
:10528000C80E82E090E09093C70E8093C60E8AEC21
:1052900098E00E942E2882E0809354060E94E7281E
:1052A000C0933A06CF9108958FEB98E00E942E2884
:1052B00082E08093540681E080933A068093C80E82
:1052C00081E090E09093C70E8093C60E0E94E7287D
:1052D00008952F923F924F925F926F927F928F929A
:1052E0009F92AF92BF92CF92DF92EF92FF920F9375
:1052F0001F93CF93DF93CDB7DEB7C654D1090FB656
:10530000F894DEBF0FBECDBF80913D0690913E0662
:1053100099233CF410923E0610923D0680E090E006
:1053200016C0E0916706F0916806E756FE4F2081AF
:105330003181220F331F220F331F215031092817CB
:10534000390728F4C90130933E0620933D069C019D
:10535000992314F42D5F3F4F359527953595279563
:1053600020932D06B90177278091670690916806F2
:105370000E943ACB882319F082E0809354068091F2
:105380002D0680932E0680915406823021F40E94CF
:10539000121810925406E0916706F0916806E080BA
:1053A000F18082819381E816F90609F43FC1712CDE
:1053B0000F2EF3E43F2EF02D612C4E0135E0830ECD
:1053C000911C5E018AE3A80EB11C00EC10E00F2EC8
:1053D000F6EC4F2E512CF02DDF01A556BE4F2C912F
:1053E00080819181329E800D911D1124222423946D
:1053F000E816F90609F0262C67019EE0C90ED11CBB
:10540000B601C4010E94A5D8B7016F5F7F4FC501E7
:105410000E94A5D8D7018C918230D1F018F4813048
:1054200039F0E0C0833021F1843009F483C0DAC060
:10543000222039F023E043E0B601872D0E94C717F0
:10544000E7C023E040E2B601872D0E94C717E0C005
:10545000222039F020E24EE3B601872D0E94C717C3
:10546000D7C020E240E2B601872D0E94C717D0C006
:10547000222081F1472D662D84E196E00E943E16A0
:105480006EE384E196E00E94BC1465E084E196E05E
:105490000E94BC148D81882321F06F8A982D892D5C
:1054A00002C09A2D8B2DC92ED82E0F2EF2E12F2E51
:1054B000F02DF60161916F01662309F481C121107D
:1054C00079C1A6C060E284E196E00E94BC142A94EF
:1054D000C9F79EC0472D662D84E196E00E943E16D6
:1054E00060E284E196E00E94BC1465E084E196E00D
:1054F0000E94BC148D81882321F06F8A982D892DFC
:1055000002C09A2D8B2DC92ED82E0F2EF2E12F2EF0
:10551000F02DD6016D916D01662309F455C121105E
:1055200057C176C060E284E196E00E94BC142A94E0
:10553000C9F76EC0222059F1472D662D84E196E00F
:105540000E943E166EE384E196E00E94BC148D81B9
:10555000882321F0688E982D892D02C09A2D8B2DDD
:10556000C92ED82E0F2EF3E12F2EF02DF6016191CA
:105570006F01662309F438C1211030C149C060E2CF
:1055800084E196E00E94BC142A94C9F741C0472DDB
:10559000662D84E196E00E943E1660E284E196E08A
:1055A0000E94BC148D81882321F0688E982D892D4E
:1055B00002C09A2D8B2DC92ED82E0F2EF3E12F2E3F
:1055C000F02DD6016D916D01662309F411C12110F2
:1055D00013C11EC060E284E196E00E94BC142A94CC
:1055E000C9F716C0E7EBF8E09491992351F0D80180
:1055F0008C9185FFFCCFD2019C93319694919111AF
:10560000F6CFF801808185FFFCCFEAE0D201EC9370
:105610007394F3E4EF0EF11CE0916706F0916806D5
:10562000828193818E159F0509F0D6CE0E94DE18E7
:10563000882309F4E7C060912D0670E08091670629
:10564000909168060E94DECE813019F40E94001904
:10565000ADC0843009F09DC0E0916706F091680606
:10566000DF01A556BE4F8C916081718133E4839F29
:10567000600D711D1124625F7F4FCE0105960E945F
:10568000A5D88D81882381F154F543E453E032E4B9
:10569000E0ECF0E086EC90E003C0882314F5F5CF51
:1056A000208125FFFDCFDC013C93DA013D91AD0166
:1056B0003111F6CFE0ECF0E0808185FFFDCF8AE08C
:1056C0008093C60089EA98E00E942E2882E08093A9
:1056D00054060E94E72880E00E943A2867C0FE0135
:1056E000369681918111D9CF80E090E0A8E4B3E4AF
:1056F00089839A83AB83BC8360E0CE0101960E94CC
:105700009D7310922F1110922E11E0916706F09167
:105710006806DF01A556BE4F2C9180819181B3E4CC
:105720002B9F800D911D112401969F938F9382EAE8
:1057300098E09F938F93CE0105969F938F930E943D
:10574000E3D88EE998E00E94C89B87E998E00E9420
:10575000C89B89850F900F900F900F900F900F901E
:10576000882361F08E01075F1F4F90E00E940DD8E3
:10577000F80181938F0180818111F7CFCE010596C9
:105780000E943F9B83E998E00E94C89B0E94E72803
:105790000DC0E0916706F0916806E055FE4F8081EC
:1057A000893021F010923E0610923D0682E08093EF
:1057B000540628C084E196E00E94BC142A9479CE55
:1057C000222009F425CF7ECE222009F421CFAACEB3
:1057D00084E196E00E94BC142A949BCE84E196E07A
:1057E0000E94BC142A94C2CE222009F411CFC7CE45
:1057F000222009F40DCFEECE84E196E00E94BC1485
:105800002A94DFCECA5BDF4F0FB6F894DEBF0FBE1F
:10581000CDBFDF91CF911F910F91FF90EF90DF905F
:10582000CF90BF90AF909F908F907F906F905F9040
:105830004F903F902F9008956F927F928F929F92FA
:10584000AF92BF92CF92DF92EF92FF920F931F938E
:10585000CF93DF93CDB7DEB728970FB6F894DEBFAE
:105860000FBECDBF8091CA0E882339F08CE19CE237
:1058700090934A0680934906F8C010926D1160E03B
:105880008BE691E10E949B841D821E821F821886F6
:1058900060E0CE0105960E949D731092A60E1092B4
:1058A000A50E0E94519C0E94F06E83E798E00E9432
:1058B0002E2882E0809354060E94E72880E00E9410
:1058C0003A280E94AA6480E00E94A8630F2EF4E5A3
:1058D0006F2EF1E17F2EF02DF301608371838283BF
:1058E000938381E00E94A8630F2EF8E58F2EF1E1EB
:1058F0009F2EF02DF401608371838283938382E075
:105900000E94A8630F2EFCE5AF2EF1E1BF2EF02D13
:1059100020E030E040E251E40E941BCFF5016083BB
:1059200071838283938383E00E94A86320E030E048
:1059300040E251E40E941ACF6093601170936111AC
:1059400080936211909363110F2EF0E3CF2EF1E15B
:10595000DF2EF02DE12CF12C08E412E420E631E1F9
:10596000A501B401C3010E941A57F30110821182EC
:105970001282138280E090E0A6E1B3E4F401808318
:105980009183A283B38320E030E040EA51E4F50143
:1059900060817181828193810E941BCF6B017C01A8
:1059A00020E030E044E353E40E94F7D118164CF0B5
:1059B000C0925C11D0925D11E0925E11F0925F1185
:1059C0000CC080E090E0A4E3B3E480935C1190937A
:1059D0005D11A0935E11B0935F110F2EF0E3CF2EF7
:1059E000F1E1DF2EF02DE12CF12C08E412E420E6A9
:1059F00031E14CE551E168E571E184E591E10E9416
:105A00001A570E94246E87E698E00E94C89B8091F6
:105A10007C0D882339F110927C0DF0903011EF2D20
:105A2000F0E0EE0FFF1FE955F14F6081718188278B
:105A300077FD8095982F0E9496D020912802309172
:105A4000290240912A0250912B020E94F7D1181688
:105A50004CF419821A821B821C826F2DCE01019692
:105A60000E949D7381E080932D1128960FB6F894C3
:105A7000DEBF0FBECDBFDF91CF911F910F91FF9081
:105A8000EF90DF90CF90BF90AF909F908F907F90DE
:105A90006F9008950E942E2881E08093310689E757
:105AA00094E390934A068093490608951092310634
:105AB0000895CF93DF9300D01F92CDB7DEB76091EA
:105AC000A70E7091A80E882777FD8095982F0E94C9
:105AD00096D069837A838B839C8360E0CE010196A4
